{
  "contractName": "CrytoDoor",
  "abi": [
    {
      "inputs": [],
      "payable": false,
      "stateMutability": "nonpayable",
      "type": "constructor"
    },
    {
      "payable": true,
      "stateMutability": "payable",
      "type": "fallback"
    },
    {
      "constant": false,
      "inputs": [
        {
          "name": "useTime",
          "type": "uint256"
        }
      ],
      "name": "purchase",
      "outputs": [],
      "payable": true,
      "stateMutability": "payable",
      "type": "function"
    },
    {
      "constant": true,
      "inputs": [],
      "name": "getKeyHolder",
      "outputs": [
        {
          "name": "",
          "type": "address"
        }
      ],
      "payable": false,
      "stateMutability": "view",
      "type": "function"
    },
    {
      "constant": true,
      "inputs": [],
      "name": "isHoldTimeFinish",
      "outputs": [
        {
          "name": "",
          "type": "bool"
        }
      ],
      "payable": false,
      "stateMutability": "view",
      "type": "function"
    },
    {
      "constant": true,
      "inputs": [],
      "name": "getLeft",
      "outputs": [
        {
          "name": "",
          "type": "int256"
        }
      ],
      "payable": false,
      "stateMutability": "view",
      "type": "function"
    },
    {
      "constant": true,
      "inputs": [],
      "name": "doorControll",
      "outputs": [
        {
          "name": "",
          "type": "bool"
        }
      ],
      "payable": false,
      "stateMutability": "view",
      "type": "function"
    }
  ],
  "bytecode": "0x608060405234801561001057600080fd5b50336000806101000a81548173ffffffffffffffffffffffffffffffffffffffff021916908373ffffffffffffffffffffffffffffffffffffffff160217905550610504806100606000396000f30060806040526004361061006d576000357c0100000000000000000000000000000000000000000000000000000000900463ffffffff168063500aeba91461006f5780635577810c1461009e57806383df8802146100f55780638735a34214610124578063efef39a11461014f575b005b34801561007b57600080fd5b5061008461016f565b604051808215151515815260200191505060405180910390f35b3480156100aa57600080fd5b506100b36101d8565b604051808273ffffffffffffffffffffffffffffffffffffffff1673ffffffffffffffffffffffffffffffffffffffff16815260200191505060405180910390f35b34801561010157600080fd5b5061010a610219565b604051808215151515815260200191505060405180910390f35b34801561013057600080fd5b5061013961022b565b6040518082815260200191505060405180910390f35b61016d600480360381019080803590602001909291905050506102cd565b005b60003373ffffffffffffffffffffffffffffffffffffffff16600160009054906101000a900473ffffffffffffffffffffffffffffffffffffffff1673ffffffffffffffffffffffffffffffffffffffff1614156101d057600190506101d5565b600090505b90565b60006101e2610219565b156101f05760009050610216565b600160009054906101000a900473ffffffffffffffffffffffffffffffffffffffff1690505b90565b60008061022461022b565b1315905090565b600080600073ffffffffffffffffffffffffffffffffffffffff16600160009054906101000a900473ffffffffffffffffffffffffffffffffffffffff1673ffffffffffffffffffffffffffffffffffffffff16148061028d57506000600354145b8061029a57506000600254145b156102a857600091506102c9565b426003546002540103905060008112156102c557600091506102c9565b8091505b5090565b60006102d7610219565b151561034b576040517f08c379a00000000000000000000000000000000000000000000000000000000081526004018080602001828103825260108152602001807f4b6579206973206e6f742066726565210000000000000000000000000000000081525060200191505060405180910390fd5b61035482610499565b9050806000141515156103cf576040517f08c379a00000000000000000000000000000000000000000000000000000000081526004018080602001828103825260108152602001807f5072696365206e6f74206d61746368210000000000000000000000000000000081525060200191505060405180910390fd5b8034141515610446576040517f08c379a00000000000000000000000000000000000000000000000000000000081526004018080602001828103825260108152602001807f5072696365206e6f74206d61746368210000000000000000000000000000000081525060200191505060405180910390fd5b33600160006101000a81548173ffffffffffffffffffffffffffffffffffffffff021916908373ffffffffffffffffffffffffffffffffffffffff16021790555042600281905550816003819055505050565b600060788214156104b45767016345785d8a000090506104d3565b61012c8214156104ce576706f05b59d3b2000090506104d3565b600090505b9190505600a165627a7a72305820796cfdf972b61028bee14563fc28333119244fb5007a3451956f7fe0e5de36d80029",
  "source": "pragma solidity ^0.4.23;\n\ncontract CrytoDoor{\n    address private owner;\n    address private keyHolder;\n    uint private holdStartTime;\n    uint private holdTime;\n\n    constructor() public{\n        owner = msg.sender;\n    }\n\n    function getPrice(uint useTime) private pure returns(uint){\n\n        if(useTime == 120) return 100000000000000000;\n        else if(useTime == 300) return 500000000000000000;\n        else return 0;\n    }\n\n    function purchase(uint useTime) public payable{\n        require(isHoldTimeFinish(), \"Key is not free!\");\n        uint price = getPrice(useTime);\n        require(0 != price, \"Price not match!\");\n        require(msg.value == price, \"Price not match!\");\n        keyHolder = msg.sender;\n        holdStartTime = block.timestamp;\n        holdTime = useTime;\n    }\n\n    function getKeyHolder() public view returns (address){\n        if(isHoldTimeFinish()) \n            return address(0);\n        else\n            return keyHolder;\n    }\n\n    function isHoldTimeFinish() public view returns (bool){\n        return getLeft() <= 0;\n    }\n\n    function getLeft() public view returns (int){\n        if(keyHolder == address(0) || holdTime == 0 || holdStartTime == 0) \n            return 0;\n\n        int left = int(holdStartTime + holdTime - block.timestamp);\n        if (left < 0) return 0;\n        return left;\n    }\n\n    function doorControll() public view returns (bool){\n        if(keyHolder == msg.sender) return true;\n        else return false;\n    }\n\n    function () external payable {\n\n    }  \n}",
  "sourcePath": "/home/fisher/develop/proj/dapps/truffle/contracts/CrytoDoor.sol",
  "compiler": {
    "name": "solc",
    "version": "0.4.23+commit.124ca40d.Emscripten.clang"
  },
  "schemaVersion": "3.0.2",
  "updatedAt": "2019-03-10T14:10:57.152Z",
  "devdoc": {
    "methods": {}
  },
  "userdoc": {
    "methods": {}
  }
}