{
  "contractName": "CrytoBox",
  "abi": [
    {
      "inputs": [],
      "payable": false,
      "stateMutability": "nonpayable",
      "type": "constructor"
    },
    {
      "constant": true,
      "inputs": [],
      "name": "getMyGoods",
      "outputs": [
        {
          "name": "",
          "type": "uint8[]"
        },
        {
          "name": "",
          "type": "bytes32[]"
        }
      ],
      "payable": false,
      "stateMutability": "view",
      "type": "function"
    },
    {
      "constant": true,
      "inputs": [],
      "name": "isFull",
      "outputs": [
        {
          "name": "",
          "type": "bool"
        }
      ],
      "payable": false,
      "stateMutability": "view",
      "type": "function"
    },
    {
      "constant": false,
      "inputs": [
        {
          "name": "goodsDesc",
          "type": "bytes32"
        }
      ],
      "name": "addGoods",
      "outputs": [],
      "payable": false,
      "stateMutability": "nonpayable",
      "type": "function"
    },
    {
      "constant": false,
      "inputs": [
        {
          "name": "id",
          "type": "uint8"
        }
      ],
      "name": "takeOut",
      "outputs": [],
      "payable": false,
      "stateMutability": "nonpayable",
      "type": "function"
    }
  ],
  "bytecode": "0x60806040526009600060146101000a81548160ff021916908360ff16021790555060008060156101000a81548160ff021916908360ff16021790555034801561004757600080fd5b50336000806101000a81548173ffffffffffffffffffffffffffffffffffffffff021916908373ffffffffffffffffffffffffffffffffffffffff1602179055506106d9806100976000396000f300608060405260043610610062576000357c0100000000000000000000000000000000000000000000000000000000900463ffffffff1680631936caaa1461006757806344052db91461011b578063babd3d9a1461014c578063c5415c081461017b575b600080fd5b34801561007357600080fd5b5061007c6101ab565b604051808060200180602001838103835285818151815260200191508051906020019060200280838360005b838110156100c35780820151818401526020810190506100a8565b50505050905001838103825284818151815260200191508051906020019060200280838360005b838110156101055780820151818401526020810190506100ea565b5050505090500194505050505060405180910390f35b34801561012757600080fd5b5061014a6004803603810190808035600019169060200190929190505050610363565b005b34801561015857600080fd5b5061016161055c565b604051808215151515815260200191505060405180910390f35b34801561018757600080fd5b506101a9600480360381019080803560ff169060200190929190505050610589565b005b606080606080600080600060149054906101000a900460ff1660ff166040519080825280602002602001820160405280156101f55781602001602082028038833980820191505090505b509350600060149054906101000a900460ff1660ff166040519080825280602002602001820160405280156102395781602001602082028038833980820191505090505b509250600091505b600060149054906101000a900460ff1660ff168260ff16101561035557600160008360ff1660ff168152602001908152602001600020905060018160000160009054906101000a900460ff1660ff161480156102ec57503373ffffffffffffffffffffffffffffffffffffffff168160000160019054906101000a900473ffffffffffffffffffffffffffffffffffffffff1673ffffffffffffffffffffffffffffffffffffffff16145b156103485781848360ff1681518110151561030357fe5b9060200190602002019060ff16908160ff16815250508060010154838360ff1681518110151561032f57fe5b9060200190602002019060001916908160001916815250505b8180600101925050610241565b838395509550505050509091565b61036b61066f565b600061037561055c565b1515156103ea576040517f08c379a000000000000000000000000000000000000000000000000000000000815260040180806020018281038252600c8152602001807f426f782069732066756c6c21000000000000000000000000000000000000000081525060200191505060405180910390fd5b606060405190810160405280600160ff1681526020013373ffffffffffffffffffffffffffffffffffffffff16815260200184600019168152509150600090505b600060149054906101000a900460ff1660ff168160ff161015610556576000600160008360ff1660ff16815260200190815260200160002060000160009054906101000a900460ff1660ff1614156105495781600160008360ff1660ff16815260200190815260200160002060008201518160000160006101000a81548160ff021916908360ff16021790555060208201518160000160016101000a81548173ffffffffffffffffffffffffffffffffffffffff021916908373ffffffffffffffffffffffffffffffffffffffff160217905550604082015181600101906000191690559050506000601581819054906101000a900460ff168092919060010191906101000a81548160ff021916908360ff16021790555050610557565b808060010191505061042b565b5b505050565b60008060149054906101000a900460ff1660ff16600060159054906101000a900460ff1660ff1614905090565b6105928161063f565b1515610606576040517f08c379a000000000000000000000000000000000000000000000000000000000815260040180806020018281038252600c8152602001807f4e6f742076616c6964206964000000000000000000000000000000000000000081525060200191505060405180910390fd5b6000600160008360ff1660ff16815260200190815260200160002060000160006101000a81548160ff021916908360ff16021790555050565b6000808260ff16101580156106685750600060149054906101000a900460ff1660ff168260ff16105b9050919050565b606060405190810160405280600060ff168152602001600073ffffffffffffffffffffffffffffffffffffffff1681526020016000801916815250905600a165627a7a7230582038bc9e68496ccb5430632bcd97ab99be2e483aedf7d316af64501e7877bb1a980029",
  "source": "pragma solidity ^0.4.23;\n\ncontract CrytoBox {\n    address private owner;\n    uint8 private boxNum = 9;\n    uint8 private currentNum = 0;\n    mapping(uint8 => Goods) private boxRecord;\n\n    struct Goods{\n        uint8 used;\n        address owner;\n        bytes32 desc;\n    }\n\n    constructor() public{\n        owner = msg.sender;\n    }\n\n    function getMyGoods() public view returns(uint8[] memory, bytes32[] memory){\n        uint8[] memory indexList = new uint8[](boxNum);\n        bytes32[] memory descList = new bytes32[](boxNum);\n\n        for(uint8 i = 0; i < boxNum; i++){\n            Goods storage g = boxRecord[i];\n            if(g.used == 1 && g.owner == msg.sender){\n                indexList[i] = i;\n                descList[i] = g.desc;\n            }\n        }\n        return (indexList, descList);\n    }\n\n    function isFull() public view returns(bool){\n        return currentNum == boxNum;\n    }\n\n    function addGoods(bytes32 goodsDesc) public{\n        require(!isFull(), \"Box is full!\");\n        Goods memory g = Goods(1, msg.sender, goodsDesc);\n        for(uint8 i = 0; i < boxNum; i++){\n            if(boxRecord[i].used == 0){\n                boxRecord[i] = g;\n                currentNum++;\n                return;\n            }\n        }\n    }\n\n    function validId(uint8 id) private view returns(bool){\n        return id >= 0 && id < boxNum;\n    }\n\n    function takeOut(uint8 id) public {\n        require(validId(id), \"Not valid id\");\n        boxRecord[id].used = 0;\n    }\n}",
  "sourcePath": "/fisher/program/ethereum/dapps/truffle/contracts/CrytoBox.sol",
  "compiler": {
    "name": "solc",
    "version": "0.4.24+commit.e67f0147.Emscripten.clang"
  },
  "schemaVersion": "2.0.1",
  "updatedAt": "2019-01-06T11:00:43.042Z"
}