{
  "contractName": "CrytoBox",
  "abi": [
    {
      "inputs": [],
      "payable": false,
      "stateMutability": "nonpayable",
      "type": "constructor"
    },
    {
      "constant": true,
      "inputs": [],
      "name": "getMyGoods",
      "outputs": [
        {
          "name": "",
          "type": "uint8[]"
        },
        {
          "name": "",
          "type": "bytes32[]"
        }
      ],
      "payable": false,
      "stateMutability": "view",
      "type": "function"
    },
    {
      "constant": true,
      "inputs": [],
      "name": "getStatus",
      "outputs": [
        {
          "name": "",
          "type": "bool[]"
        }
      ],
      "payable": false,
      "stateMutability": "view",
      "type": "function"
    },
    {
      "constant": true,
      "inputs": [],
      "name": "isFull",
      "outputs": [
        {
          "name": "",
          "type": "bool"
        }
      ],
      "payable": false,
      "stateMutability": "view",
      "type": "function"
    },
    {
      "constant": false,
      "inputs": [
        {
          "name": "goodsDesc",
          "type": "bytes32"
        }
      ],
      "name": "addGoods",
      "outputs": [],
      "payable": false,
      "stateMutability": "nonpayable",
      "type": "function"
    },
    {
      "constant": false,
      "inputs": [
        {
          "name": "id",
          "type": "uint8"
        }
      ],
      "name": "takeOut",
      "outputs": [],
      "payable": false,
      "stateMutability": "nonpayable",
      "type": "function"
    }
  ],
  "bytecode": "0x60806040526009600060146101000a81548160ff021916908360ff16021790555060008060156101000a81548160ff021916908360ff16021790555034801561004757600080fd5b50336000806101000a81548173ffffffffffffffffffffffffffffffffffffffff021916908373ffffffffffffffffffffffffffffffffffffffff1602179055506109ea806100976000396000f30060806040526004361061006d576000357c0100000000000000000000000000000000000000000000000000000000900463ffffffff1680631936caaa1461007257806344052db9146101265780634e69d56014610157578063babd3d9a146101c3578063c5415c08146101f2575b600080fd5b34801561007e57600080fd5b50610087610222565b604051808060200180602001838103835285818151815260200191508051906020019060200280838360005b838110156100ce5780820151818401526020810190506100b3565b50505050905001838103825284818151815260200191508051906020019060200280838360005b838110156101105780820151818401526020810190506100f5565b5050505090500194505050505060405180910390f35b34801561013257600080fd5b5061015560048036038101908080356000191690602001909291905050506103da565b005b34801561016357600080fd5b5061016c6105d3565b6040518080602001828103825283818151815260200191508051906020019060200280838360005b838110156101af578082015181840152602081019050610194565b505050509050019250505060405180910390f35b3480156101cf57600080fd5b506101d86106e1565b604051808215151515815260200191505060405180910390f35b3480156101fe57600080fd5b50610220600480360381019080803560ff16906020019092919050505061070e565b005b606080606080600080600060149054906101000a900460ff1660ff1660405190808252806020026020018201604052801561026c5781602001602082028038833980820191505090505b509350600060149054906101000a900460ff1660ff166040519080825280602002602001820160405280156102b05781602001602082028038833980820191505090505b509250600091505b600060149054906101000a900460ff1660ff168260ff1610156103cc57600160008360ff1660ff168152602001908152602001600020905060018160000160009054906101000a900460ff1660ff1614801561036357503373ffffffffffffffffffffffffffffffffffffffff168160000160019054906101000a900473ffffffffffffffffffffffffffffffffffffffff1673ffffffffffffffffffffffffffffffffffffffff16145b156103bf5781848360ff1681518110151561037a57fe5b9060200190602002019060ff16908160ff16815250508060010154838360ff168151811015156103a657fe5b9060200190602002019060001916908160001916815250505b81806001019250506102b8565b838395509550505050509091565b6103e2610980565b60006103ec6106e1565b151515610461576040517f08c379a000000000000000000000000000000000000000000000000000000000815260040180806020018281038252600c8152602001807f426f782069732066756c6c21000000000000000000000000000000000000000081525060200191505060405180910390fd5b606060405190810160405280600160ff1681526020013373ffffffffffffffffffffffffffffffffffffffff16815260200184600019168152509150600090505b600060149054906101000a900460ff1660ff168160ff1610156105cd576000600160008360ff1660ff16815260200190815260200160002060000160009054906101000a900460ff1660ff1614156105c05781600160008360ff1660ff16815260200190815260200160002060008201518160000160006101000a81548160ff021916908360ff16021790555060208201518160000160016101000a81548173ffffffffffffffffffffffffffffffffffffffff021916908373ffffffffffffffffffffffffffffffffffffffff160217905550604082015181600101906000191690559050506000601581819054906101000a900460ff168092919060010191906101000a81548160ff021916908360ff160217905550506105ce565b80806001019150506104a2565b5b505050565b606080600080600060149054906101000a900460ff1660ff1660405190808252806020026020018201604052801561061a5781602001602082028038833980820191505090505b509250600091505b600060149054906101000a900460ff1660ff168260ff1610156106d857600160008360ff1660ff168152602001908152602001600020905060018160000160009054906101000a900460ff1660ff1614156106a3576001838360ff1681518110151561068a57fe5b90602001906020020190151590811515815250506106cb565b6000838360ff168151811015156106b657fe5b90602001906020020190151590811515815250505b8180600101925050610622565b82935050505090565b60008060149054906101000a900460ff1660ff16600060159054906101000a900460ff1660ff1614905090565b600061071982610950565b151561078d576040517f08c379a000000000000000000000000000000000000000000000000000000000815260040180806020018281038252600c8152602001807f4e6f742076616c6964206964000000000000000000000000000000000000000081525060200191505060405180910390fd5b600160008360ff1660ff168152602001908152602001600020905060018160000160009054906101000a900460ff1660ff16141515610834576040517f08c379a000000000000000000000000000000000000000000000000000000000815260040180806020018281038252600a8152602001807f4974277320656d7074790000000000000000000000000000000000000000000081525060200191505060405180910390fd5b3373ffffffffffffffffffffffffffffffffffffffff168160000160019054906101000a900473ffffffffffffffffffffffffffffffffffffffff1673ffffffffffffffffffffffffffffffffffffffff161415156108fb576040517f08c379a00000000000000000000000000000000000000000000000000000000081526004018080602001828103825260118152602001807f596f7520617265206e6f74206f776e657200000000000000000000000000000081525060200191505060405180910390fd5b60008160000160006101000a81548160ff021916908360ff1602179055506000601581819054906101000a900460ff16809291906001900391906101000a81548160ff021916908360ff160217905550505050565b6000808260ff16101580156109795750600060149054906101000a900460ff1660ff168260ff16105b9050919050565b606060405190810160405280600060ff168152602001600073ffffffffffffffffffffffffffffffffffffffff1681526020016000801916815250905600a165627a7a7230582027ce979048f733ef147c7ca8aa39ae41cdd05d7fb4a33434278b77272e02c96b0029",
  "source": "pragma solidity ^0.4.23;\n\ncontract CrytoBox {\n    address private owner;\n    uint8 private boxNum = 9;\n    uint8 private currentNum = 0;\n    mapping(uint8 => Goods) private boxRecord;\n\n    struct Goods{\n        uint8 used;\n        address owner;\n        bytes32 desc;\n    }\n\n    constructor() public{\n        owner = msg.sender;\n    }\n\n    function getMyGoods() public view returns(uint8[] memory, bytes32[] memory){\n        uint8[] memory indexList = new uint8[](boxNum);\n        bytes32[] memory descList = new bytes32[](boxNum);\n\n        for(uint8 i = 0; i < boxNum; i++){\n            Goods storage g = boxRecord[i];\n            if(g.used == 1 && g.owner == msg.sender){\n                indexList[i] = i;\n                descList[i] = g.desc;\n            }\n        }\n        return (indexList, descList);\n    }\n\n    function getStatus() public view returns(bool[] memory){\n        bool[] memory res = new bool[](boxNum);\n        for(uint8 i = 0; i < boxNum; i++){\n            Goods storage g = boxRecord[i];\n            if(g.used == 1)\n                res[i] = true;\n            else\n                res[i] = false;\n        }\n        return res;\n    }\n\n    function isFull() public view returns(bool){\n        return currentNum == boxNum;\n    }\n\n    function addGoods(bytes32 goodsDesc) public{\n        require(!isFull(), \"Box is full!\");\n        Goods memory g = Goods(1, msg.sender, goodsDesc);\n        for(uint8 i = 0; i < boxNum; i++){\n            if(boxRecord[i].used == 0){\n                boxRecord[i] = g;\n                currentNum++;\n                return;\n            }\n        }\n    }\n\n    function validId(uint8 id) private view returns(bool){\n        return id >= 0 && id < boxNum;\n    }\n\n    function takeOut(uint8 id) public {\n        require(validId(id), \"Not valid id\");\n        Goods storage g = boxRecord[id];\n        require(g.used == 1, \"It's empty\");\n        require(g.owner == msg.sender, \"You are not owner\");\n        g.used = 0;\n        currentNum--;\n    }\n}",
  "sourcePath": "/fisher/program/ethereum/dapps/truffle/contracts/CrytoBox.sol",
  "compiler": {
    "name": "solc",
    "version": "0.4.24+commit.e67f0147.Emscripten.clang"
  },
  "schemaVersion": "2.0.1",
  "updatedAt": "2019-01-07T09:49:10.515Z"
}