{
  "contractName": "Lottery",
  "abi": [
    {
      "inputs": [],
      "payable": false,
      "stateMutability": "nonpayable",
      "type": "constructor"
    },
    {
      "payable": true,
      "stateMutability": "payable",
      "type": "fallback"
    },
    {
      "constant": true,
      "inputs": [],
      "name": "getTicketPrice",
      "outputs": [
        {
          "name": "",
          "type": "uint256"
        }
      ],
      "payable": false,
      "stateMutability": "pure",
      "type": "function"
    },
    {
      "constant": true,
      "inputs": [],
      "name": "getRound",
      "outputs": [
        {
          "name": "",
          "type": "uint256"
        }
      ],
      "payable": false,
      "stateMutability": "view",
      "type": "function"
    },
    {
      "constant": true,
      "inputs": [
        {
          "name": "_round",
          "type": "uint256"
        }
      ],
      "name": "getRoundInfo",
      "outputs": [
        {
          "name": "",
          "type": "uint256"
        },
        {
          "name": "",
          "type": "address"
        }
      ],
      "payable": false,
      "stateMutability": "view",
      "type": "function"
    },
    {
      "constant": true,
      "inputs": [],
      "name": "getAllRoundInfo",
      "outputs": [
        {
          "name": "",
          "type": "uint256"
        },
        {
          "name": "",
          "type": "uint256[]"
        },
        {
          "name": "",
          "type": "address[]"
        },
        {
          "name": "",
          "type": "int256[]"
        }
      ],
      "payable": false,
      "stateMutability": "view",
      "type": "function"
    },
    {
      "constant": true,
      "inputs": [],
      "name": "getBalance",
      "outputs": [
        {
          "name": "",
          "type": "uint256"
        }
      ],
      "payable": false,
      "stateMutability": "view",
      "type": "function"
    },
    {
      "constant": false,
      "inputs": [],
      "name": "buy",
      "outputs": [],
      "payable": true,
      "stateMutability": "payable",
      "type": "function"
    },
    {
      "constant": false,
      "inputs": [
        {
          "name": "roundNumber",
          "type": "uint256"
        }
      ],
      "name": "drawWinner",
      "outputs": [],
      "payable": false,
      "stateMutability": "nonpayable",
      "type": "function"
    },
    {
      "constant": false,
      "inputs": [],
      "name": "withdraw",
      "outputs": [],
      "payable": false,
      "stateMutability": "nonpayable",
      "type": "function"
    },
    {
      "constant": false,
      "inputs": [
        {
          "name": "_round",
          "type": "uint256"
        }
      ],
      "name": "deleteRound",
      "outputs": [],
      "payable": false,
      "stateMutability": "nonpayable",
      "type": "function"
    }
  ],
  "bytecode": "0x6080604052600a60025534801561001557600080fd5b506001808190555060025443016000806001548152602001908152602001600020600001819055506005600254430101600080600154815260200190815260200160002060010181905550610ef28061006f6000396000f300608060405260043610610099576000357c0100000000000000000000000000000000000000000000000000000000900463ffffffff16806311f61596146100a357806312065fe0146101a65780633b9c0fdc146101d15780633ccfd60b146101fe57806360b2a56a1461021557806387bb7ae01461024257806388c3ffb01461026d5780639f8743f7146102e1578063a6f2ae3a1461030c575b6100a1610316565b005b3480156100af57600080fd5b506100b8610547565b60405180858152602001806020018060200180602001848103845287818151815260200191508051906020019060200280838360005b838110156101095780820151818401526020810190506100ee565b50505050905001848103835286818151815260200191508051906020019060200280838360005b8381101561014b578082015181840152602081019050610130565b50505050905001848103825285818151815260200191508051906020019060200280838360005b8381101561018d578082015181840152602081019050610172565b5050505090500197505050505050505060405180910390f35b3480156101b257600080fd5b506101bb6106f3565b6040518082815260200191505060405180910390f35b3480156101dd57600080fd5b506101fc6004803603810190808035906020019092919050505061073a565b005b34801561020a57600080fd5b5061021361090a565b005b34801561022157600080fd5b50610240600480360381019080803590602001909291905050506109dd565b005b34801561024e57600080fd5b50610257610dbd565b6040518082815260200191505060405180910390f35b34801561027957600080fd5b5061029860048036038101908080359060200190929190505050610dcd565b604051808381526020018273ffffffffffffffffffffffffffffffffffffffff1673ffffffffffffffffffffffffffffffffffffffff1681526020019250505060405180910390f35b3480156102ed57600080fd5b506102f6610e1a565b6040518082815260200191505060405180910390f35b610314610316565b005b6000610320610e24565b600067016345785d8a00003481151561033557fe5b061415156103d1576040517f08c379a000000000000000000000000000000000000000000000000000000000815260040180806020018281038252602e8152602001807f56616c7565206d75737420626520696e7465676572206d756c7469706c65732081526020017f6f66205469636b6574507269636500000000000000000000000000000000000081525060400191505060405180910390fd5b6000806001548152602001908152602001600020600001544311156104445760018060008282540192505081905550600254430160008060015481526020019081526020016000206000018190555060056002544301016000806001548152602001908152602001600020600101819055505b67016345785d8a00003481151561045757fe5b04915060408051908101604052803373ffffffffffffffffffffffffffffffffffffffff1681526020018381525090506000806001548152602001908152602001600020600201819080600181540180825580915050906001820390600052602060002090600202016000909192909190915060008201518160000160006101000a81548173ffffffffffffffffffffffffffffffffffffffff021916908373ffffffffffffffffffffffffffffffffffffffff16021790555060208201518160010155505050816000806001548152602001908152602001600020600301600082825401925050819055505050565b60006060806060806060806000806001546040519080825280602002602001820160405280156105865781602001602082028038833980820191505090505b5094506001546040519080825280602002602001820160405280156105ba5781602001602082028038833980820191505090505b5093506001546040519080825280602002602001820160405280156105ee5781602001602082028038833980820191505090505b509250600091505b6001548210156106da5760008060018401815260200190815260200160002090508060030154858381518110151561062a57fe5b90602001906020020181815250508060040160009054906101000a900473ffffffffffffffffffffffffffffffffffffffff16848381518110151561066b57fe5b9060200190602002019073ffffffffffffffffffffffffffffffffffffffff16908173ffffffffffffffffffffffffffffffffffffffff16815250506001438260010154030183838151811015156106bf57fe5b906020019060200201818152505081806001019250506105f6565b6001548585859850985098509850505050505090919293565b6000600360003373ffffffffffffffffffffffffffffffffffffffff1673ffffffffffffffffffffffffffffffffffffffff16815260200190815260200160002054905090565b60646000808381526020019081526020016000206001015401431115156107c9576040517f08c379a00000000000000000000000000000000000000000000000000000000081526004018080602001828103825260088152602001807f4e6f74206e6f772100000000000000000000000000000000000000000000000081525060200191505060405180910390fd5b600073ffffffffffffffffffffffffffffffffffffffff1660008083815260200190815260200160002060040160009054906101000a900473ffffffffffffffffffffffffffffffffffffffff1673ffffffffffffffffffffffffffffffffffffffff16141515156108a3576040517f08c379a00000000000000000000000000000000000000000000000000000000081526004018080602001828103825260088152602001807f4e6f74206472617700000000000000000000000000000000000000000000000081525060200191505060405180910390fd5b60008082815260200190815260200160002060008082016000905560018201600090556002820160006108d69190610e54565b60038201600090556004820160006101000a81549073ffffffffffffffffffffffffffffffffffffffff0219169055505050565b6000600360003373ffffffffffffffffffffffffffffffffffffffff1673ffffffffffffffffffffffffffffffffffffffff1681526020019081526020016000205490506000600360003373ffffffffffffffffffffffffffffffffffffffff1673ffffffffffffffffffffffffffffffffffffffff168152602001908152602001600020819055503373ffffffffffffffffffffffffffffffffffffffff166108fc829081150290604051600060405180830381858888f193505050501580156109d9573d6000803e3d6000fd5b5050565b60008060008060008060008781526020019081526020016000209450600073ffffffffffffffffffffffffffffffffffffffff168560040160009054906101000a900473ffffffffffffffffffffffffffffffffffffffff1673ffffffffffffffffffffffffffffffffffffffff16141515610ac1576040517f08c379a00000000000000000000000000000000000000000000000000000000081526004018080602001828103825260168152602001807f57696e6e657220686173206265656e206472617765640000000000000000000081525060200191505060405180910390fd5b846001015443111515610b3c576040517f08c379a00000000000000000000000000000000000000000000000000000000081526004018080602001828103825260148152602001807f4472617720626c6f636b206e6f7420726561636800000000000000000000000081525060200191505060405180910390fd5b60008560020180549050111515610bbb576040517f08c379a000000000000000000000000000000000000000000000000000000000815260040180806020018281038252600f8152602001807f4e6f20656e74727920617420616c6c000000000000000000000000000000000081525060200191505060405180910390fd5b8460010154406040516020018082600019166000191681526020019150506040516020818303038152906040526040518082805190602001908083835b602083101515610c1d5780518252602082019150602081019050602083039250610bf8565b6001836020036101000a0380198251168184511680821785525050505050509050019150506040518091039020935084600301548460019004811515610c5f57fe5b069250600091505b8460020180549050821015610d3f578460020182815481101515610c8757fe5b906000526020600020906002020160010154905082811115610d2d578460020182815481101515610cb457fe5b906000526020600020906002020160000160009054906101000a900473ffffffffffffffffffffffffffffffffffffffff168560040160006101000a81548173ffffffffffffffffffffffffffffffffffffffff021916908373ffffffffffffffffffffffffffffffffffffffff160217905550610d3f565b80830392508180600101925050610c67565b846003015467016345785d8a000002600360008760040160009054906101000a900473ffffffffffffffffffffffffffffffffffffffff1673ffffffffffffffffffffffffffffffffffffffff1673ffffffffffffffffffffffffffffffffffffffff16815260200190815260200160002081905550505050505050565b600067016345785d8a0000905090565b6000806000806000858152602001908152602001600020905080600301548160040160009054906101000a900473ffffffffffffffffffffffffffffffffffffffff169250925050915091565b6000600154905090565b6040805190810160405280600073ffffffffffffffffffffffffffffffffffffffff168152602001600081525090565b5080546000825560020290600052602060002090810190610e759190610e78565b50565b610ec391905b80821115610ebf57600080820160006101000a81549073ffffffffffffffffffffffffffffffffffffffff0219169055600182016000905550600201610e7e565b5090565b905600a165627a7a7230582025f7de811b7feaa858eef2e2027021815f4e43bd592c4be6ac868d36212191520029",
  "source": "pragma solidity ^0.4.23;\n\ncontract Lottery {\n    struct Round {\n        uint endBlock;\n        uint drawBlock;\n        Entry[] entries;\n        uint totalQuantity;\n        address winner;\n    }\n\n    struct Entry {\n        address buyer;\n        uint quantity;\n    }\n\n    uint constant private TicketPrice = 1e17;\n    mapping(uint => Round) private rounds;\n    uint private round;\n    uint private duration = 10;\n    mapping (address => uint) private balances;\n\n    constructor() public {\n        round = 1;\n        rounds[round].endBlock = block.number + duration;\n        rounds[round].drawBlock = block.number + duration + 5;\n    }\n\n    /** getter */\n    function getTicketPrice() public pure returns(uint){\n        return TicketPrice;\n    }\n\n    function getRound() public view returns (uint){\n        return round;\n    }\n\n    function getRoundInfo (uint _round) public view returns (uint, address) {\n        Round storage r = rounds[_round];\n        return (r.totalQuantity, r.winner);\n    }\n\n    function getAllRoundInfo () public view returns(uint, uint[] memory, address[] memory, int[] memory){\n        uint[] memory quantityArray = new uint[](round);\n        address[] memory winnerArray = new address[](round);\n        int[] memory diff = new int[](round);\n\n        for(uint i = 0; i < round; i++){\n            Round storage r = rounds[i+1];\n            quantityArray[i] = r.totalQuantity;\n            winnerArray[i] = r.winner;\n            diff[i] = int(r.drawBlock - block.number + 1);\n        }\n        return (round, quantityArray, winnerArray, diff);\n    }\n    \n    function getBalance() public view returns(uint256) {\n        return balances[msg.sender];\n    }\n\n    /** logic */\n    function buy() public payable{\n        require(msg.value % TicketPrice == 0, \"Value must be integer multiples of TicketPrice\");\n        if(block.number > rounds[round].endBlock){\n            round += 1;\n            rounds[round].endBlock = block.number + duration;\n            rounds[round].drawBlock = block.number + duration + 5;\n        }\n        uint quantity = msg.value / TicketPrice;\n        Entry memory entry = Entry(msg.sender, quantity);\n        rounds[round].entries.push(entry);\n        rounds[round].totalQuantity += quantity;\n    }\n\n    function drawWinner(uint roundNumber) public{\n        Round storage drawing = rounds[roundNumber];\n        require(drawing.winner == address(0), \"Winner has been drawed\");\n        require(block.number > drawing.drawBlock, \"Draw block not reach\");\n        require(drawing.entries.length > 0, \"No entry at all\");\n\n        bytes32 rand = keccak256(abi.encode(blockhash(drawing.drawBlock)));\n\n        uint counter = uint(rand) % drawing.totalQuantity;\n        for(uint i = 0; i < drawing.entries.length; i++){\n            uint quantity = drawing.entries[i].quantity;\n            if(quantity > counter){\n                drawing.winner = drawing.entries[i].buyer;\n                break;\n            }else{\n                counter -= quantity;\n            }\n        }\n        balances[drawing.winner] = TicketPrice * drawing.totalQuantity;\n    }\n\n    function withdraw() public{\n        uint amount = balances[msg.sender];\n        balances[msg.sender] = 0;\n        msg.sender.transfer(amount);\n    }\n\n    function deleteRound(uint _round) public{\n        require(block.number > rounds[_round].drawBlock+100, \"Not now!\");\n        require(rounds[_round].winner != address(0), \"Not draw\");\n        delete rounds[_round];\n    }\n\n\n    function () external payable {\n        buy();\n    }\n}",
  "sourcePath": "/Users/stephenwu/develop/ethereum/dapps/truffle/contracts/Lottery.sol",
  "compiler": {
    "name": "solc",
    "version": "0.4.25+commit.59dbf8f1.Emscripten.clang"
  },
  "schemaVersion": "2.0.2",
  "updatedAt": "2019-02-26T11:48:08.805Z"
}