{
  "contractName": "SimplePonzi",
  "abi": [
    {
      "constant": true,
      "inputs": [
        {
          "name": "",
          "type": "address"
        }
      ],
      "name": "balances",
      "outputs": [
        {
          "name": "",
          "type": "uint256"
        }
      ],
      "payable": false,
      "stateMutability": "view",
      "type": "function"
    },
    {
      "constant": true,
      "inputs": [
        {
          "name": "",
          "type": "uint256"
        }
      ],
      "name": "investors",
      "outputs": [
        {
          "name": "",
          "type": "address"
        }
      ],
      "payable": false,
      "stateMutability": "view",
      "type": "function"
    },
    {
      "constant": true,
      "inputs": [],
      "name": "MinimumInvestment",
      "outputs": [
        {
          "name": "",
          "type": "uint256"
        }
      ],
      "payable": false,
      "stateMutability": "view",
      "type": "function"
    },
    {
      "inputs": [],
      "payable": false,
      "stateMutability": "nonpayable",
      "type": "constructor"
    },
    {
      "payable": true,
      "stateMutability": "payable",
      "type": "fallback"
    },
    {
      "constant": true,
      "inputs": [],
      "name": "getMinimumInvestment",
      "outputs": [
        {
          "name": "",
          "type": "uint256"
        }
      ],
      "payable": false,
      "stateMutability": "pure",
      "type": "function"
    },
    {
      "constant": false,
      "inputs": [],
      "name": "withdraw",
      "outputs": [],
      "payable": false,
      "stateMutability": "nonpayable",
      "type": "function"
    },
    {
      "constant": true,
      "inputs": [],
      "name": "getBalance",
      "outputs": [
        {
          "name": "",
          "type": "uint256"
        }
      ],
      "payable": false,
      "stateMutability": "view",
      "type": "function"
    }
  ],
  "bytecode": "0x608060405234801561001057600080fd5b5060003390806001815401808255809150509060018203906000526020600020016000909192909190916101000a81548173ffffffffffffffffffffffffffffffffffffffff021916908373ffffffffffffffffffffffffffffffffffffffff16021790555050610579806100866000396000f300608060405260043610610078576000357c0100000000000000000000000000000000000000000000000000000000900463ffffffff16806312065fe01461026557806327e235e3146102905780633ccfd60b146102e75780633feb5f2b146102fe578063dfef4fee1461036b578063f338684d14610396575b60008067016345785d8a000034101515156100fb576040517f08c379a00000000000000000000000000000000000000000000000000000000081526004018080602001828103825260158152602001807f496e766573746d656e74206e6f7420656e6f756768000000000000000000000081525060200191505060405180910390fd5b6000805490503481151561010b57fe5b049150600090505b6000805490508110156101b2578160016000808481548110151561013357fe5b9060005260206000200160009054906101000a900473ffffffffffffffffffffffffffffffffffffffff1673ffffffffffffffffffffffffffffffffffffffff1673ffffffffffffffffffffffffffffffffffffffff168152602001908152602001600020600082825401925050819055508080600101915050610113565b6000600160003373ffffffffffffffffffffffffffffffffffffffff1673ffffffffffffffffffffffffffffffffffffffff1681526020019081526020016000205414156102615760003390806001815401808255809150509060018203906000526020600020016000909192909190916101000a81548173ffffffffffffffffffffffffffffffffffffffff021916908373ffffffffffffffffffffffffffffffffffffffff160217905550505b5050005b34801561027157600080fd5b5061027a6103c1565b6040518082815260200191505060405180910390f35b34801561029c57600080fd5b506102d1600480360381019080803573ffffffffffffffffffffffffffffffffffffffff169060200190929190505050610408565b6040518082815260200191505060405180910390f35b3480156102f357600080fd5b506102fc610420565b005b34801561030a57600080fd5b50610329600480360381019080803590602001909291905050506104f3565b604051808273ffffffffffffffffffffffffffffffffffffffff1673ffffffffffffffffffffffffffffffffffffffff16815260200191505060405180910390f35b34801561037757600080fd5b50610380610531565b6040518082815260200191505060405180910390f35b3480156103a257600080fd5b506103ab61053d565b6040518082815260200191505060405180910390f35b6000600160003373ffffffffffffffffffffffffffffffffffffffff1673ffffffffffffffffffffffffffffffffffffffff16815260200190815260200160002054905090565b60016020528060005260406000206000915090505481565b6000600160003373ffffffffffffffffffffffffffffffffffffffff1673ffffffffffffffffffffffffffffffffffffffff1681526020019081526020016000205490506000600160003373ffffffffffffffffffffffffffffffffffffffff1673ffffffffffffffffffffffffffffffffffffffff168152602001908152602001600020819055503373ffffffffffffffffffffffffffffffffffffffff166108fc829081150290604051600060405180830381858888f193505050501580156104ef573d6000803e3d6000fd5b5050565b60008181548110151561050257fe5b906000526020600020016000915054906101000a900473ffffffffffffffffffffffffffffffffffffffff1681565b67016345785d8a000081565b600067016345785d8a00009050905600a165627a7a723058209c19e490fe601682a97de7dc12f0a237d5f660a56f005cb4ffd518f1e8708c0a0029",
  "source": "pragma solidity ^0.4.23;\n\ncontract SimplePonzi{\n    address[] public investors;\n    mapping(address => uint) public balances;\n    uint public constant MinimumInvestment = 1e17;\n\n    constructor () public{\n        investors.push(msg.sender);\n    }\n\n    function getMinimumInvestment() public pure returns(uint) {\n        return MinimumInvestment;\n    }\n\n    function () external payable {\n        require(msg.value >= MinimumInvestment, \"Investment not enough\");\n        uint share = msg.value / investors.length;\n        for(uint i = 0; i < investors.length; i++){\n            balances[investors[i]] += share;\n        }\n        if(balances[msg.sender] == 0)\n            investors.push(msg.sender);\n    }\n\n    function withdraw () public {\n        uint payout = balances[msg.sender];\n        balances[msg.sender] = 0;\n        msg.sender.transfer(payout);\n    }\n\n    function getBalance () public view returns(uint) {\n        return balances[msg.sender];\n    }\n}",
  "sourcePath": "/Users/stephenwu/develop/ethereum/dapps/truffle/contracts/SimplePonzi.sol",
  "compiler": {
    "name": "solc",
    "version": "0.4.25+commit.59dbf8f1.Emscripten.clang"
  },
  "schemaVersion": "2.0.2",
  "updatedAt": "2019-02-26T11:48:08.500Z"
}